:02000000242AB0
:10000800FF00030E8301DF000A08E0008A01700880
:10001800A9007108A8007408A7007508A600780848
:10002800A5007908A4007A08A3007B08A2007C0830
:10003800A1007D08A0000408AA008C1E3628122200
:100048007008003A031D2928232812227008013A53
:10005800031D362819227008EF002B30ED001E30E2
:10006800EE00D22183122908F0002808F1002708A1
:10007800F4002608F5002508F8002408F9002308EC
:10008800FA002208FB002108FC002008FD002A08CD
:10009800840060088A005F0E8300FF0E7F0E09004F
:1000A800710DF80DF90D7408F8027508031C750F29
:1000B800F902F00DF10D0F30FC00710DF80DF90D7E
:1000C8007408701C6D28F8027508031C750FF90276
:1000D8007228F80775080318750FF907F00DF10D68
:1000E800FC0B612870187E287408F8077508031837
:0800F800750FF9070000080074
:10010000831203137408003A031D8F287508003A00
:10011000031D8F28FF30F0007F30F100E8288312A4
:100120000313FD01F901F80171087004031900348B
:1001300071087506FA00FA1BFD09FB01F51FA528D9
:10014000F409F509F40A0319F50AF11FAC28F009BE
:10015000F109F00A0319F10A71087504FA00FA1B93
:10016000C12854207B18D428FD1F0034F009F10960
:10017000F00A0319F10AF809F909F80A0319F90A4A
:100180000034F51FD028F11BCC287108F900700845
:10019000F800F101F001B428F101F001F00A003497
:1001A000F109F009FB0AB128F80A0319F90A7408E1
:1001B0007802031DB42875087902031DB428F901DB
:1001C000F801F00A0319F10AF11FB4280000FF3406
:0201D000080025
:0E01D200831203135E088A005D088200080095
:1001E000FF3083120313EC00690A84000008003C0E
:1001F00003182C2902306907F100690884000008FF
:10020000F0007008710784000008F0006B0884009B
:1002100070088000690884000008F0000130F007D1
:10022000F1010318F10A6A08F400F501802078084A
:10023000F0007908F1006908840070088000690AFC
:10024000F100710884000003F00071088400700858
:1002500080000130EC0030296B0884008001EC0143
:060260006C08F00008002C
:10026600E9208A110A128000840ADD0A0319DE0ACF
:08027600F003031D3329080009
:10027E0083120313E5012C08003C0318BF296508FF
:10028E00003A031DBF292B30E9001E30EA0066300C
:10029E00EB00F0207008013A031DBE29E701640847
:1002AE00670203187E2967086402F300F401031C39
:1002BE00F40301307302F0000030031C013E74029F
:1002CE00F10070084B3EF20002307302F000003075
:1002DE00031C013E7402F10070084B3E84000008BE
:1002EE00F0007208840070088000E70A562966083C
:1002FE00CB0001306402F000F101031CF103700821
:10030E004B3E840000086206031DBD294B086306A0
:10031E00031DBD29E801640868020318BA2968089C
:10032E006402F000F101031CF1030130F002031C22
:10033E00F10370084B3E84000008F0006108840051
:10034E0070088000E10A68086402F000F101031CE5
:10035E00F1030130F002031CF10370084B3E8400E0
:10036E008001E80A92290130E500BE29E501422903
:06037E006508F000080014
:1003840083160313981690308312980083168614EC
:10039400061183128C1ED1291A08F000CB290800FB
:1003A400831203136D0884000008F0006D0A83169D
:1003B400A200220884000008F007F1010318F10AE2
:1003C40083126E08F400F50180207808F0007908A3
:1003D400F10070088316A1002208840083126E08BD
:1003E400000203180D2A02306D07F000831621085D
:1003F4007007840083126F0880006D0AF100710891
:100404008400000AF0007108840070088000013044
:100414008316A0000F2A8316A0012008F00008000C
:0E0424000030831203138C1A0130F000080020
:10043200831203131A08F100981C212A18121816A5
:060442007108F000080043
:10044800831603130610061286128611831286116C
:100458008130831699001815C2210330FB008A30B9
:10046800FC005530FD00FD0B372AFC0B372AFB0B2F
:10047800372A0000000083168C160C120B178B17F6
:1004880083120614061686160D30FB00AF30FC00EA
:10049800B630FD00FD0B4E2AFC0B4E2AFB0B4E2AF4
:1004A80000000610061286125430E1005330E200B4
:1004B8004530E3000930E4003F217008013A031D8C
:1004C8008B2A5508303A031D8B2A5608443A031DD7
:1004D8008B2A5908313A031D722A06145908303AF2
:1004E800031D772A06105A08313A031D7C2A06167E
:1004F8005A08303A031D812A06125B08313A031D57
:10050800862A86165B08303A031D8B2A8612582ADB
:020518008C2A2B
:02400E006A2125
:00000001FF
